{
  "contractName": "MiniPoll",
  "abi": [
    {
      "inputs": [
        {
          "internalType": "string",
          "name": "",
          "type": "string"
        },
        {
          "internalType": "uint256",
          "name": "",
          "type": "uint256"
        }
      ],
      "name": "pollResponses",
      "outputs": [
        {
          "internalType": "string",
          "name": "poll_id",
          "type": "string"
        }
      ],
      "stateMutability": "view",
      "type": "function",
      "constant": true
    },
    {
      "inputs": [
        {
          "internalType": "uint256",
          "name": "",
          "type": "uint256"
        }
      ],
      "name": "polls",
      "outputs": [
        {
          "internalType": "string",
          "name": "poll_id",
          "type": "string"
        },
        {
          "internalType": "string",
          "name": "name",
          "type": "string"
        },
        {
          "internalType": "string",
          "name": "poll_type",
          "type": "string"
        }
      ],
      "stateMutability": "view",
      "type": "function",
      "constant": true
    },
    {
      "inputs": [
        {
          "internalType": "string",
          "name": "poll_id",
          "type": "string"
        },
        {
          "internalType": "bytes32[]",
          "name": "votes",
          "type": "bytes32[]"
        }
      ],
      "name": "vote",
      "outputs": [],
      "stateMutability": "nonpayable",
      "type": "function"
    },
    {
      "inputs": [
        {
          "internalType": "string",
          "name": "poll_id",
          "type": "string"
        }
      ],
      "name": "getPollResponses",
      "outputs": [
        {
          "internalType": "bytes32[]",
          "name": "",
          "type": "bytes32[]"
        }
      ],
      "stateMutability": "view",
      "type": "function",
      "constant": true
    },
    {
      "inputs": [
        {
          "internalType": "string",
          "name": "poll_id",
          "type": "string"
        },
        {
          "internalType": "string",
          "name": "poll_type",
          "type": "string"
        }
      ],
      "name": "createPoll",
      "outputs": [],
      "stateMutability": "nonpayable",
      "type": "function"
    },
    {
      "inputs": [],
      "name": "getAllPolls",
      "outputs": [
        {
          "internalType": "string[]",
          "name": "",
          "type": "string[]"
        }
      ],
      "stateMutability": "view",
      "type": "function",
      "constant": true
    }
  ],
  "bytecode": "0x608060405234801561001057600080fd5b50611fa5806100206000396000f3fe608060405234801561001057600080fd5b50600436106100625760003560e01c806304710b661461006757806332b633fa14610083578063ac2f0074146100a1578063b60e530f146100d3578063d4ea303114610103578063eae4d9ff14610133575b600080fd5b610081600480360381019061007c91906111a5565b61014f565b005b61008b61024b565b6040516100989190611a7b565b60405180910390f35b6100bb60048036038101906100b69190611265565b6106e2565b6040516100ca93929190611abf565b60405180910390f35b6100ed60048036038101906100e891906110f8565b6108b4565b6040516100fa9190611a59565b60405180910390f35b61011d60048036038101906101189190611211565b610974565b60405161012a9190611a9d565b60405180910390f35b61014d60048036038101906101489190611139565b610a4d565b005b60018260405161015f91906118fa565b908152602001604051809103902060009054906101000a900460ff16156101bb576040517f08c379a00000000000000000000000000000000000000000000000000000000081526004016101b290611b0b565b60405180910390fd5b6000806001816001815401808255809150500390600052602060002090600502019050828160000190805190602001906101f6929190610ec3565b508181600201908051906020019061020f929190610ec3565b506001808460405161022191906118fa565b908152602001604051809103902060006101000a81548160ff021916908315150217905550505050565b60606000808054905067ffffffffffffffff811115610293577f4e487b7100000000000000000000000000000000000000000000000000000000600052604160045260246000fd5b6040519080825280602002602001820160405280156102c657816020015b60608152602001906001900390816102b15790505b50905060005b6000805490508110156106da57600060405180602001604052806000815250905060005b6000838154811061032a577f4e487b7100000000000000000000000000000000000000000000000000000000600052603260045260246000fd5b90600052602060002090600502016003018054905081101561057d576000811115610372578160405160200161036091906119c2565b60405160208183030381529060405291505b6000610410600085815481106103b1577f4e487b7100000000000000000000000000000000000000000000000000000000600052603260045260246000fd5b906000526020600020906005020160030183815481106103fa577f4e487b7100000000000000000000000000000000000000000000000000000000600052603260045260246000fd5b9060005260206000209060030201600201610b37565b9050826104b060008681548110610450577f4e487b7100000000000000000000000000000000000000000000000000000000600052603260045260246000fd5b90600052602060002090600502016003018481548110610499577f4e487b7100000000000000000000000000000000000000000000000000000000600052603260045260246000fd5b906000526020600020906003020160000154610c65565b600086815481106104ea577f4e487b7100000000000000000000000000000000000000000000000000000000600052603260045260246000fd5b90600052602060002090600502016003018481548110610533577f4e487b7100000000000000000000000000000000000000000000000000000000600052603260045260246000fd5b9060005260206000209060030201600101836040516020016105589493929190611958565b604051602081830303815290604052925050808061057590611dfa565b9150506102f0565b50600082815481106105b8577f4e487b7100000000000000000000000000000000000000000000000000000000600052603260045260246000fd5b906000526020600020906005020160000160008381548110610603577f4e487b7100000000000000000000000000000000000000000000000000000000600052603260045260246000fd5b90600052602060002090600502016001016000848154811061064e577f4e487b7100000000000000000000000000000000000000000000000000000000600052603260045260246000fd5b90600052602060002090600502016002018360405160200161067394939291906119e4565b6040516020818303038152906040528383815181106106bb577f4e487b7100000000000000000000000000000000000000000000000000000000600052603260045260246000fd5b60200260200101819052505080806106d290611dfa565b9150506102cc565b508091505090565b600081815481106106f257600080fd5b906000526020600020906005020160009150905080600001805461071590611dc8565b80601f016020809104026020016040519081016040528092919081815260200182805461074190611dc8565b801561078e5780601f106107635761010080835404028352916020019161078e565b820191906000526020600020905b81548152906001019060200180831161077157829003601f168201915b5050505050908060010180546107a390611dc8565b80601f01602080910402602001604051908101604052809291908181526020018280546107cf90611dc8565b801561081c5780601f106107f15761010080835404028352916020019161081c565b820191906000526020600020905b8154815290600101906020018083116107ff57829003601f168201915b50505050509080600201805461083190611dc8565b80601f016020809104026020016040519081016040528092919081815260200182805461085d90611dc8565b80156108aa5780601f1061087f576101008083540402835291602001916108aa565b820191906000526020600020905b81548152906001019060200180831161088d57829003601f168201915b5050505050905083565b60606002826040516108c691906118fa565b908152602001604051809103902060008154811061090d577f4e487b7100000000000000000000000000000000000000000000000000000000600052603260045260246000fd5b906000526020600020906002020160010180548060200260200160405190810160405280929190818152602001828054801561096857602002820191906000526020600020905b815481526020019060010190808311610954575b50505050509050919050565b60028280516020810182018051848252602083016020850120818352809550505050505081815481106109a657600080fd5b9060005260206000209060020201600091509150508060000180546109ca90611dc8565b80601f01602080910402602001604051908101604052809291908181526020018280546109f690611dc8565b8015610a435780601f10610a1857610100808354040283529160200191610a43565b820191906000526020600020905b815481529060010190602001808311610a2657829003601f168201915b5050505050905081565b6000610a5883610e18565b905080610a9a576040517f08c379a0000000000000000000000000000000000000000000000000000000008152600401610a9190611b2b565b60405180910390fd5b600283604051610aaa91906118fa565b908152602001604051809103902060405180604001604052808581526020018481525090806001815401808255809150506001900390600052602060002090600202016000909190919091506000820151816000019080519060200190610b12929190610ec3565b506020820151816001019080519060200190610b2f929190610f49565b505050505050565b6060600060405180602001604052806000815250905060005b8380549050811015610c5b5760008114610b875781604051602001610b7591906119c2565b60405160208183030381529060405291505b81610bdb858381548110610bc4577f4e487b7100000000000000000000000000000000000000000000000000000000600052603260045260246000fd5b906000526020600020906004020160000154610c65565b858381548110610c14577f4e487b7100000000000000000000000000000000000000000000000000000000600052603260045260246000fd5b9060005260206000209060040201600101604051602001610c3793929190611911565b60405160208183030381529060405291508080610c5390611dfa565b915050610b50565b5080915050919050565b60606000821415610cad576040518060400160405280600181526020017f30000000000000000000000000000000000000000000000000000000000000008152509050610e13565b600082905060005b60008214610cdf578080610cc890611dfa565b915050600a82610cd89190611d0d565b9150610cb5565b60008167ffffffffffffffff811115610d21577f4e487b7100000000000000000000000000000000000000000000000000000000600052604160045260246000fd5b6040519080825280601f01601f191660200182016040528015610d535781602001600182028036833780820191505090505b50905060008290505b60008614610e0b57600181610d719190611d3e565b9050600a86610d809190611e43565b6030610d8c9190611cb7565b60f81b828281518110610dc8577f4e487b7100000000000000000000000000000000000000000000000000000000600052603260045260246000fd5b60200101907effffffffffffffffffffffffffffffffffffffffffffffffffffffffffffff1916908160001a905350600a86610e049190611d0d565b9550610d5c565b819450505050505b919050565b600080600090505b600080549050811015610eb857828051906020012060008281548110610e6f577f4e487b7100000000000000000000000000000000000000000000000000000000600052603260045260246000fd5b9060005260206000209060050201600001604051610e8d91906118e3565b60405180910390201415610ea5576001915050610ebe565b8080610eb090611dfa565b915050610e20565b50600090505b919050565b828054610ecf90611dc8565b90600052602060002090601f016020900481019282610ef15760008555610f38565b82601f10610f0a57805160ff1916838001178555610f38565b82800160010185558215610f38579182015b82811115610f37578251825591602001919060010190610f1c565b5b509050610f459190610f96565b5090565b828054828255906000526020600020908101928215610f85579160200282015b82811115610f84578251825591602001919060010190610f69565b5b509050610f929190610fb3565b5090565b5b80821115610faf576000816000905550600101610f97565b5090565b5b80821115610fcc576000816000905550600101610fb4565b5090565b6000610fe3610fde84611b7c565b611b4b565b9050808382526020820190508285602086028201111561100257600080fd5b60005b85811015611032578161101888826110a4565b845260208401935060208301925050600181019050611005565b5050509392505050565b600061104f61104a84611ba8565b611b4b565b90508281526020810184848401111561106757600080fd5b611072848285611d86565b509392505050565b600082601f83011261108b57600080fd5b813561109b848260208601610fd0565b91505092915050565b6000813590506110b381611f41565b92915050565b600082601f8301126110ca57600080fd5b81356110da84826020860161103c565b91505092915050565b6000813590506110f281611f58565b92915050565b60006020828403121561110a57600080fd5b600082013567ffffffffffffffff81111561112457600080fd5b611130848285016110b9565b91505092915050565b6000806040838503121561114c57600080fd5b600083013567ffffffffffffffff81111561116657600080fd5b611172858286016110b9565b925050602083013567ffffffffffffffff81111561118f57600080fd5b61119b8582860161107a565b9150509250929050565b600080604083850312156111b857600080fd5b600083013567ffffffffffffffff8111156111d257600080fd5b6111de858286016110b9565b925050602083013567ffffffffffffffff8111156111fb57600080fd5b611207858286016110b9565b9150509250929050565b6000806040838503121561122457600080fd5b600083013567ffffffffffffffff81111561123e57600080fd5b61124a858286016110b9565b925050602061125b858286016110e3565b9150509250929050565b60006020828403121561127757600080fd5b6000611285848285016110e3565b91505092915050565b600061129a838361138d565b60208301905092915050565b60006112b2838361141b565b905092915050565b60006112c582611c22565b6112cf8185611c5d565b93506112da83611bd8565b8060005b8381101561130b5781516112f2888261128e565b97506112fd83611c43565b9250506001810190506112de565b5085935050505092915050565b600061132382611c2d565b61132d8185611c6e565b93508360208202850161133f85611be8565b8060005b8581101561137b578484038952815161135c85826112a6565b945061136783611c50565b925060208a01995050600181019050611343565b50829750879550505050505092915050565b61139681611d72565b82525050565b600081546113a981611dc8565b6113b38186611c7f565b945060018216600081146113ce57600181146113df57611412565b60ff19831686528186019350611412565b6113e885611bf8565b60005b8381101561140a578154818901526001820191506020810190506113eb565b838801955050505b50505092915050565b600061142682611c38565b6114308185611c8a565b9350611440818560208601611d95565b61144981611f30565b840191505092915050565b600061145f82611c38565b6114698185611c9b565b9350611479818560208601611d95565b61148281611f30565b840191505092915050565b600061149882611c38565b6114a28185611cac565b93506114b2818560208601611d95565b80840191505092915050565b600081546114cb81611dc8565b6114d58186611cac565b945060018216600081146114f0576001811461150157611534565b60ff19831686528186019350611534565b61150a85611c0d565b60005b8381101561152c5781548189015260018201915060208101905061150d565b838801955050505b50505092915050565b600061154a600683611cac565b91507f7b4149443a2000000000000000000000000000000000000000000000000000006000830152600682019050919050565b600061158a602183611c9b565b91507f506f6c6c2077697468207468697320494420616c72656164792065786973747360008301527f2e000000000000000000000000000000000000000000000000000000000000006020830152604082019050919050565b60006115f0600883611cac565b91507f2c204e616d653a200000000000000000000000000000000000000000000000006000830152600882019050919050565b6000611630600983611cac565b91507f2c20414e616d653a2000000000000000000000000000000000000000000000006000830152600982019050919050565b6000611670600883611cac565b91507f2c20547970653a200000000000000000000000000000000000000000000000006000830152600882019050919050565b60006116b0600e83611cac565b91507f2c205175657374696f6e733a205b0000000000000000000000000000000000006000830152600e82019050919050565b60006116f0600983611cac565b91507f2c20514e616d653a2000000000000000000000000000000000000000000000006000830152600982019050919050565b6000611730600e83611c9b565b91507f506f6c6c206e6f7420666f756e640000000000000000000000000000000000006000830152602082019050919050565b6000611770600683611cac565b91507f7b5149443a2000000000000000000000000000000000000000000000000000006000830152600682019050919050565b60006117b0600283611cac565b91507f5d7d0000000000000000000000000000000000000000000000000000000000006000830152600282019050919050565b60006117f0600183611cac565b91507f5d000000000000000000000000000000000000000000000000000000000000006000830152600182019050919050565b6000611830600283611cac565b91507f2c200000000000000000000000000000000000000000000000000000000000006000830152600282019050919050565b6000611870600c83611cac565b91507f2c20416e73776572733a205b00000000000000000000000000000000000000006000830152600c82019050919050565b60006118b0600983611cac565b91507f506f6c6c2049443a2000000000000000000000000000000000000000000000006000830152600982019050919050565b60006118ef828461139c565b915081905092915050565b6000611906828461148d565b915081905092915050565b600061191d828661148d565b91506119288261153d565b9150611934828561148d565b915061193f82611623565b915061194b82846114be565b9150819050949350505050565b6000611964828761148d565b915061196f82611763565b915061197b828661148d565b9150611986826116e3565b915061199282856114be565b915061199d82611863565b91506119a9828461148d565b91506119b4826117a3565b915081905095945050505050565b60006119ce828461148d565b91506119d982611823565b915081905092915050565b60006119ef826118a3565b91506119fb82876114be565b9150611a06826115e3565b9150611a1282866114be565b9150611a1d82611663565b9150611a2982856114be565b9150611a34826116a3565b9150611a40828461148d565b9150611a4b826117e3565b915081905095945050505050565b60006020820190508181036000830152611a7381846112ba565b905092915050565b60006020820190508181036000830152611a958184611318565b905092915050565b60006020820190508181036000830152611ab78184611454565b905092915050565b60006060820190508181036000830152611ad98186611454565b90508181036020830152611aed8185611454565b90508181036040830152611b018184611454565b9050949350505050565b60006020820190508181036000830152611b248161157d565b9050919050565b60006020820190508181036000830152611b4481611723565b9050919050565b6000604051905081810181811067ffffffffffffffff82111715611b7257611b71611f01565b5b8060405250919050565b600067ffffffffffffffff821115611b9757611b96611f01565b5b602082029050602081019050919050565b600067ffffffffffffffff821115611bc357611bc2611f01565b5b601f19601f8301169050602081019050919050565b6000819050602082019050919050565b6000819050602082019050919050565b60008190508160005260206000209050919050565b60008190508160005260206000209050919050565b600081519050919050565b600081519050919050565b600081519050919050565b6000602082019050919050565b6000602082019050919050565b600082825260208201905092915050565b600082825260208201905092915050565b600081905092915050565b600082825260208201905092915050565b600082825260208201905092915050565b600081905092915050565b6000611cc282611d7c565b9150611ccd83611d7c565b9250827fffffffffffffffffffffffffffffffffffffffffffffffffffffffffffffffff03821115611d0257611d01611e74565b5b828201905092915050565b6000611d1882611d7c565b9150611d2383611d7c565b925082611d3357611d32611ea3565b5b828204905092915050565b6000611d4982611d7c565b9150611d5483611d7c565b925082821015611d6757611d66611e74565b5b828203905092915050565b6000819050919050565b6000819050919050565b82818337600083830152505050565b60005b83811015611db3578082015181840152602081019050611d98565b83811115611dc2576000848401525b50505050565b60006002820490506001821680611de057607f821691505b60208210811415611df457611df3611ed2565b5b50919050565b6000611e0582611d7c565b91507fffffffffffffffffffffffffffffffffffffffffffffffffffffffffffffffff821415611e3857611e37611e74565b5b600182019050919050565b6000611e4e82611d7c565b9150611e5983611d7c565b925082611e6957611e68611ea3565b5b828206905092915050565b7f4e487b7100000000000000000000000000000000000000000000000000000000600052601160045260246000fd5b7f4e487b7100000000000000000000000000000000000000000000000000000000600052601260045260246000fd5b7f4e487b7100000000000000000000000000000000000000000000000000000000600052602260045260246000fd5b7f4e487b7100000000000000000000000000000000000000000000000000000000600052604160045260246000fd5b6000601f19601f8301169050919050565b611f4a81611d72565b8114611f5557600080fd5b50565b611f6181611d7c565b8114611f6c57600080fd5b5056fea2646970667358221220d8998a9516b2135bd66a2346f1bde09525ef8fad317d1af8677a4bf29f8c961864736f6c63430008000033",
  "immutableReferences": {},
  "source": "// SPDX-License-Identifier: MIT\npragma solidity ^0.8.0;\n\ncontract MiniPoll { \n    struct VoteInput {\n        uint question;\n        uint answer_option;\n    }\n\n    struct AnswerOption{\n        uint id;\n        string name;\n        uint question;\n        uint votes;\n    }\n\n    struct Question {\n        uint id;\n        string name;\n        AnswerOption[] answer_options;\n    }\n\n    struct Poll {\n        string poll_id;\n        string name;\n        string poll_type;\n        Question[] questions;\n        string[] options;\n    }\n\n    struct PollResponse {\n        string poll_id;\n        bytes32[] voteHashes;\n    }\n\n    Poll[] public polls;\n    mapping(string => bool) private existingPollIDs;\n    mapping(string => PollResponse[]) public pollResponses;\n\n    function vote(string memory poll_id, bytes32[] memory votes) public {\n        bool found = findPollIndex(poll_id);\n        require(found, \"Poll not found\");\n\n        pollResponses[poll_id].push(PollResponse(poll_id, votes));\n    }\n\n    function getPollResponses(string memory poll_id) public view returns (bytes32[] memory) {\n        return pollResponses[poll_id][0].voteHashes;\n    }\n\n    function findAnswerIndex(uint pollIndex, uint questionIndex, uint answerId) private view returns (bool) {\n        Question storage question = polls[pollIndex].questions[questionIndex];\n        for (uint i = 0; i < question.answer_options.length; i++) {\n            if (question.answer_options[i].id == answerId) {\n                return true;\n            }\n        }\n        return false;\n    }\n\n\n    function createPoll(string memory poll_id, string memory poll_type) public {\n        require(!existingPollIDs[poll_id], \"Poll with this ID already exists.\");\n\n        Poll storage newPoll = polls.push();\n        newPoll.poll_id = poll_id;\n        newPoll.poll_type = poll_type;\n        \n        existingPollIDs[poll_id] = true;\n    }\n\n    function findPollIndex(string memory poll_id) private view returns (bool) {\n        for (uint i = 0; i < polls.length; i++) {\n            if (keccak256(bytes(polls[i].poll_id)) == keccak256(bytes(poll_id))) {\n                return true;\n            }\n        }\n        return false;\n    }\n\n    function uintToString(uint _i) internal pure returns (string memory _uintAsString) {\n        if (_i == 0) {\n            return \"0\";\n        }\n        uint j = _i;\n        uint len;\n        while (j != 0) {\n            len++;\n            j /= 10;\n        }\n        bytes memory bstr = new bytes(len);\n        uint k = len;\n        while (_i != 0) {\n            k = k - 1;\n            bstr[k] = bytes1(uint8(48 + _i % 10));\n            _i /= 10;\n        }\n        return string(bstr);\n    }\n\nfunction getAllPolls() public view returns (string[] memory) {\n    string[] memory allPolls = new string[](polls.length);\n    for (uint i = 0; i < polls.length; i++) {\n        string memory questionDetails = \"\";\n        for (uint j = 0; j < polls[i].questions.length; j++) {\n            if (j > 0) {\n                questionDetails = string(abi.encodePacked(questionDetails, \", \"));\n            }\n            string memory answersDetails = formatAnswers(polls[i].questions[j].answer_options);\n            questionDetails = string(abi.encodePacked(questionDetails, \"{QID: \", uintToString(polls[i].questions[j].id),\n                \", QName: \", polls[i].questions[j].name, \", Answers: [\", answersDetails, \"]}\"));\n        }\n        allPolls[i] = string(abi.encodePacked(\"Poll ID: \", polls[i].poll_id, \", Name: \", polls[i].name,\n            \", Type: \", polls[i].poll_type, \", Questions: [\", questionDetails, \"]\"));\n    }\n    return allPolls;\n}\n\n    function formatAnswers(AnswerOption[] storage answers) private view returns (string memory) {\n        string memory details = \"\";\n        for (uint k = 0; k < answers.length; k++) {\n            if (k != 0) {\n                details = string(abi.encodePacked(details, \", \"));\n            }\n            details = string(abi.encodePacked(details, \"{AID: \", uintToString(answers[k].id), \", AName: \", answers[k].name));\n        }\n        return details;\n    }\n\n\n     function findQuestionIndex(uint pollIndex, uint question_id) private view returns (uint, bool) {\n        for (uint i = 0; i < polls[pollIndex].questions.length; i++) {\n            if (polls[pollIndex].questions[i].id == question_id) {\n                return (i, true);\n            }\n        }\n        return (0, false);\n    }\n\n    // function addAnswerToQuestion(string memory poll_id, uint question_id, uint ans_id) public {\n    //     bool pollFound = findPollIndex(poll_id);\n    //     require(pollFound, \"Poll not found\");\n\n    //     (uint questionIndex, bool questionFound) = findQuestionIndex(pollIndex, question_id);\n    //     require(questionFound, \"Question not found\");\n\n    //     AnswerOption storage newAnswer = polls[pollIndex].questions[questionIndex].answer_options.push();\n\n    //     newAnswer.id = ans_id;\n    //     newAnswer.question = polls[pollIndex].questions[questionIndex].id;\n\n    //     polls[pollIndex].questions[questionIndex].answer_options.push(newAnswer);\n    // }\n    \n\n    // function addQuestionToPoll(string memory poll_id, uint question_id) public {\n    //     bool found = findPollIndex(poll_id);\n    //     require(found, \"Poll not found\");\n\n    //     Question storage newQuestion = polls[pollIndex].questions.push();\n    //     newQuestion.id = question_id; \n    //     newQuestion.name = \"\";\n\n    //     polls[pollIndex].questions.push(newQuestion);\n    // }\n\n}\n",
  "sourcePath": "/Users/alexandr/Documents/QPole-PSU/blockchain/contracts/SimpleStorage.sol",
  "compiler": {
    "name": "solc",
    "version": "0.8.0+commit.c7dfd78e.Emscripten.clang"
  },
  "schemaVersion": "3.4.16",
  "updatedAt": "2024-05-29T17:37:33.835Z",
  "networkType": "ethereum",
  "devdoc": {
    "kind": "dev",
    "methods": {},
    "version": 1
  },
  "userdoc": {
    "kind": "user",
    "methods": {},
    "version": 1
  }
}